{
  "contractName": "Decentragram",
  "abi": [
    {
      "inputs": [],
      "stateMutability": "nonpayable",
      "type": "constructor"
    },
    {
      "anonymous": false,
      "inputs": [
        {
          "indexed": false,
          "internalType": "uint256",
          "name": "id",
          "type": "uint256"
        },
        {
          "indexed": false,
          "internalType": "string",
          "name": "hash",
          "type": "string"
        },
        {
          "indexed": false,
          "internalType": "string",
          "name": "description",
          "type": "string"
        },
        {
          "indexed": false,
          "internalType": "uint256",
          "name": "grantAmount",
          "type": "uint256"
        },
        {
          "indexed": false,
          "internalType": "address payable",
          "name": "user",
          "type": "address"
        }
      ],
      "name": "ImageTipped",
      "type": "event"
    },
    {
      "anonymous": false,
      "inputs": [
        {
          "indexed": false,
          "internalType": "uint256",
          "name": "id",
          "type": "uint256"
        },
        {
          "indexed": false,
          "internalType": "string",
          "name": "hash",
          "type": "string"
        },
        {
          "indexed": false,
          "internalType": "string",
          "name": "description",
          "type": "string"
        },
        {
          "indexed": false,
          "internalType": "uint256",
          "name": "grantAmount",
          "type": "uint256"
        },
        {
          "indexed": false,
          "internalType": "address payable",
          "name": "user",
          "type": "address"
        }
      ],
      "name": "ImageUploaded",
      "type": "event"
    },
    {
      "inputs": [
        {
          "internalType": "uint256",
          "name": "",
          "type": "uint256"
        }
      ],
      "name": "images",
      "outputs": [
        {
          "internalType": "uint256",
          "name": "id",
          "type": "uint256"
        },
        {
          "internalType": "string",
          "name": "hash",
          "type": "string"
        },
        {
          "internalType": "string",
          "name": "description",
          "type": "string"
        },
        {
          "internalType": "uint256",
          "name": "grantAmount",
          "type": "uint256"
        },
        {
          "internalType": "address payable",
          "name": "user",
          "type": "address"
        }
      ],
      "stateMutability": "view",
      "type": "function",
      "constant": true
    },
    {
      "inputs": [],
      "name": "imagesCount",
      "outputs": [
        {
          "internalType": "uint256",
          "name": "",
          "type": "uint256"
        }
      ],
      "stateMutability": "view",
      "type": "function",
      "constant": true
    },
    {
      "inputs": [],
      "name": "name",
      "outputs": [
        {
          "internalType": "string",
          "name": "",
          "type": "string"
        }
      ],
      "stateMutability": "view",
      "type": "function",
      "constant": true
    },
    {
      "inputs": [
        {
          "internalType": "string",
          "name": "_hash",
          "type": "string"
        },
        {
          "internalType": "string",
          "name": "_description",
          "type": "string"
        }
      ],
      "name": "uploadImage",
      "outputs": [],
      "stateMutability": "nonpayable",
      "type": "function"
    },
    {
      "inputs": [
        {
          "internalType": "uint256",
          "name": "_id",
          "type": "uint256"
        }
      ],
      "name": "tipImageOwner",
      "outputs": [],
      "stateMutability": "payable",
      "type": "function",
      "payable": true
    }
  ],
  "bytecode": "0x60806040526040518060400160405280600c81526020017f446563656e7472616772616d0000000000000000000000000000000000000000815250600090816200004a9190620002de565b5060006002553480156200005d57600080fd5b50620003c5565b600081519050919050565b7f4e487b7100000000000000000000000000000000000000000000000000000000600052604160045260246000fd5b7f4e487b7100000000000000000000000000000000000000000000000000000000600052602260045260246000fd5b60006002820490506001821680620000e657607f821691505b602082108103620000fc57620000fb6200009e565b5b50919050565b60008190508160005260206000209050919050565b60006020601f8301049050919050565b600082821b905092915050565b600060088302620001667fffffffffffffffffffffffffffffffffffffffffffffffffffffffffffffffff8262000127565b62000172868362000127565b95508019841693508086168417925050509392505050565b6000819050919050565b6000819050919050565b6000620001bf620001b9620001b3846200018a565b62000194565b6200018a565b9050919050565b6000819050919050565b620001db836200019e565b620001f3620001ea82620001c6565b84845462000134565b825550505050565b600090565b6200020a620001fb565b62000217818484620001d0565b505050565b5b818110156200023f576200023360008262000200565b6001810190506200021d565b5050565b601f8211156200028e57620002588162000102565b620002638462000117565b8101602085101562000273578190505b6200028b620002828562000117565b8301826200021c565b50505b505050565b600082821c905092915050565b6000620002b36000198460080262000293565b1980831691505092915050565b6000620002ce8383620002a0565b9150826002028217905092915050565b620002e98262000064565b67ffffffffffffffff8111156200030557620003046200006f565b5b620003118254620000cd565b6200031e82828562000243565b600060209050601f83116001811462000356576000841562000341578287015190505b6200034d8582620002c0565b865550620003bd565b601f198416620003668662000102565b60005b82811015620003905784890151825560018201915060208501945060208101905062000369565b86831015620003b05784890151620003ac601f891682620002a0565b8355505b6001600288020188555050505b505050505050565b61101380620003d56000396000f3fe60806040526004361061004a5760003560e01c806306fdde031461004f57806356e224af1461007a57806384856482146100a55780638567ade8146100e6578063a91b831414610102575b600080fd5b34801561005b57600080fd5b5061006461012b565b60405161007191906108a6565b60405180910390f35b34801561008657600080fd5b5061008f6101b9565b60405161009c91906108e1565b60405180910390f35b3480156100b157600080fd5b506100cc60048036038101906100c7919061093c565b6101bf565b6040516100dd9594939291906109aa565b60405180910390f35b61010060048036038101906100fb919061093c565b610325565b005b34801561010e57600080fd5b5061012960048036038101906101249190610b40565b610685565b005b6000805461013890610be7565b80601f016020809104026020016040519081016040528092919081815260200182805461016490610be7565b80156101b15780601f10610186576101008083540402835291602001916101b1565b820191906000526020600020905b81548152906001019060200180831161019457829003601f168201915b505050505081565b60025481565b60016020528060005260406000206000915090508060000154908060010180546101e890610be7565b80601f016020809104026020016040519081016040528092919081815260200182805461021490610be7565b80156102615780601f1061023657610100808354040283529160200191610261565b820191906000526020600020905b81548152906001019060200180831161024457829003601f168201915b50505050509080600201805461027690610be7565b80601f01602080910402602001604051908101604052809291908181526020018280546102a290610be7565b80156102ef5780601f106102c4576101008083540402835291602001916102ef565b820191906000526020600020905b8154815290600101906020018083116102d257829003601f168201915b5050505050908060030154908060040160009054906101000a900473ffffffffffffffffffffffffffffffffffffffff16905085565b60008111801561033757506002548111155b61034057600080fd5b6000600160008381526020019081526020016000206040518060a00160405290816000820154815260200160018201805461037a90610be7565b80601f01602080910402602001604051908101604052809291908181526020018280546103a690610be7565b80156103f35780601f106103c8576101008083540402835291602001916103f3565b820191906000526020600020905b8154815290600101906020018083116103d657829003601f168201915b5050505050815260200160028201805461040c90610be7565b80601f016020809104026020016040519081016040528092919081815260200182805461043890610be7565b80156104855780601f1061045a57610100808354040283529160200191610485565b820191906000526020600020905b81548152906001019060200180831161046857829003601f168201915b50505050508152602001600382015481526020016004820160009054906101000a900473ffffffffffffffffffffffffffffffffffffffff1673ffffffffffffffffffffffffffffffffffffffff1673ffffffffffffffffffffffffffffffffffffffff16815250509050806080015173ffffffffffffffffffffffffffffffffffffffff163373ffffffffffffffffffffffffffffffffffffffff160361052c57600080fd5b806080015173ffffffffffffffffffffffffffffffffffffffff166108fc349081150290604051600060405180830381858888f19350505050158015610576573d6000803e3d6000fd5b5034816060018181516105899190610c47565b9150818152505080600160008481526020019081526020016000206000820151816000015560208201518160010190816105c39190610e27565b5060408201518160020190816105d99190610e27565b506060820151816003015560808201518160040160006101000a81548173ffffffffffffffffffffffffffffffffffffffff021916908373ffffffffffffffffffffffffffffffffffffffff1602179055509050507f1a409fdd5763d6f632cc0ec92624ec448fae2c874dc340879889ed07b57f9bde816000015182602001518360400151846060015185608001516040516106799594939291906109aa565b60405180910390a15050565b60008251118015610697575060008151115b80156106d05750600073ffffffffffffffffffffffffffffffffffffffff163373ffffffffffffffffffffffffffffffffffffffff1614155b6106d957600080fd5b600260008154809291906106ec90610ef9565b91905055506040518060a001604052806002548152602001838152602001828152602001600081526020013373ffffffffffffffffffffffffffffffffffffffff168152506001600060025481526020019081526020016000206000820151816000015560208201518160010190816107659190610e27565b50604082015181600201908161077b9190610e27565b506060820151816003015560808201518160040160006101000a81548173ffffffffffffffffffffffffffffffffffffffff021916908373ffffffffffffffffffffffffffffffffffffffff1602179055509050507f1a409fdd5763d6f632cc0ec92624ec448fae2c874dc340879889ed07b57f9bde600254838360003360405161080a959493929190610f7c565b60405180910390a15050565b600081519050919050565b600082825260208201905092915050565b60005b83811015610850578082015181840152602081019050610835565b60008484015250505050565b6000601f19601f8301169050919050565b600061087882610816565b6108828185610821565b9350610892818560208601610832565b61089b8161085c565b840191505092915050565b600060208201905081810360008301526108c0818461086d565b905092915050565b6000819050919050565b6108db816108c8565b82525050565b60006020820190506108f660008301846108d2565b92915050565b6000604051905090565b600080fd5b600080fd5b610919816108c8565b811461092457600080fd5b50565b60008135905061093681610910565b92915050565b60006020828403121561095257610951610906565b5b600061096084828501610927565b91505092915050565b600073ffffffffffffffffffffffffffffffffffffffff82169050919050565b600061099482610969565b9050919050565b6109a481610989565b82525050565b600060a0820190506109bf60008301886108d2565b81810360208301526109d1818761086d565b905081810360408301526109e5818661086d565b90506109f460608301856108d2565b610a01608083018461099b565b9695505050505050565b600080fd5b600080fd5b7f4e487b7100000000000000000000000000000000000000000000000000000000600052604160045260246000fd5b610a4d8261085c565b810181811067ffffffffffffffff82111715610a6c57610a6b610a15565b5b80604052505050565b6000610a7f6108fc565b9050610a8b8282610a44565b919050565b600067ffffffffffffffff821115610aab57610aaa610a15565b5b610ab48261085c565b9050602081019050919050565b82818337600083830152505050565b6000610ae3610ade84610a90565b610a75565b905082815260208101848484011115610aff57610afe610a10565b5b610b0a848285610ac1565b509392505050565b600082601f830112610b2757610b26610a0b565b5b8135610b37848260208601610ad0565b91505092915050565b60008060408385031215610b5757610b56610906565b5b600083013567ffffffffffffffff811115610b7557610b7461090b565b5b610b8185828601610b12565b925050602083013567ffffffffffffffff811115610ba257610ba161090b565b5b610bae85828601610b12565b9150509250929050565b7f4e487b7100000000000000000000000000000000000000000000000000000000600052602260045260246000fd5b60006002820490506001821680610bff57607f821691505b602082108103610c1257610c11610bb8565b5b50919050565b7f4e487b7100000000000000000000000000000000000000000000000000000000600052601160045260246000fd5b6000610c52826108c8565b9150610c5d836108c8565b9250828201905080821115610c7557610c74610c18565b5b92915050565b60008190508160005260206000209050919050565b60006020601f8301049050919050565b600082821b905092915050565b600060088302610cdd7fffffffffffffffffffffffffffffffffffffffffffffffffffffffffffffffff82610ca0565b610ce78683610ca0565b95508019841693508086168417925050509392505050565b6000819050919050565b6000610d24610d1f610d1a846108c8565b610cff565b6108c8565b9050919050565b6000819050919050565b610d3e83610d09565b610d52610d4a82610d2b565b848454610cad565b825550505050565b600090565b610d67610d5a565b610d72818484610d35565b505050565b5b81811015610d9657610d8b600082610d5f565b600181019050610d78565b5050565b601f821115610ddb57610dac81610c7b565b610db584610c90565b81016020851015610dc4578190505b610dd8610dd085610c90565b830182610d77565b50505b505050565b600082821c905092915050565b6000610dfe60001984600802610de0565b1980831691505092915050565b6000610e178383610ded565b9150826002028217905092915050565b610e3082610816565b67ffffffffffffffff811115610e4957610e48610a15565b5b610e538254610be7565b610e5e828285610d9a565b600060209050601f831160018114610e915760008415610e7f578287015190505b610e898582610e0b565b865550610ef1565b601f198416610e9f86610c7b565b60005b82811015610ec757848901518255600182019150602085019450602081019050610ea2565b86831015610ee45784890151610ee0601f891682610ded565b8355505b6001600288020188555050505b505050505050565b6000610f04826108c8565b91507fffffffffffffffffffffffffffffffffffffffffffffffffffffffffffffffff8203610f3657610f35610c18565b5b600182019050919050565b6000819050919050565b6000610f66610f61610f5c84610f41565b610cff565b6108c8565b9050919050565b610f7681610f4b565b82525050565b600060a082019050610f9160008301886108d2565b8181036020830152610fa3818761086d565b90508181036040830152610fb7818661086d565b9050610fc66060830185610f6d565b610fd3608083018461099b565b969550505050505056fea2646970667358221220a480c5f9c15c2ab17ec492d8960767b0ab327428d052203f1e322ba8a0ee8dd964736f6c63430008110033",
  "immutableReferences": {},
  "source": "pragma solidity ^0.8.4;\r\n\r\ncontract Decentragram {\r\n    string public name = \"Decentragram\";\r\n\r\n    struct Image {\r\n        uint id;\r\n        string hash;\r\n        string description;\r\n        uint grantAmount;\r\n        address payable user;\r\n    }\r\n\r\n    mapping(uint => Image) public images;\r\n    uint public imagesCount = 0;\r\n\r\n    event ImageUploaded(\r\n        uint id,\r\n        string hash,\r\n        string description,\r\n        uint grantAmount,\r\n        address payable user\r\n    );\r\n\r\n    event ImageTipped(\r\n        uint id,\r\n        string hash,\r\n        string description,\r\n        uint grantAmount,\r\n        address payable user\r\n    );\r\n\r\n    constructor() {}\r\n\r\n    function uploadImage(\r\n        string memory _hash,\r\n        string memory _description\r\n    ) public {\r\n        require(\r\n            bytes(_hash).length > 0 &&\r\n                bytes(_description).length > 0 &&\r\n                msg.sender != address(0)\r\n        );\r\n\r\n        imagesCount++;\r\n        images[imagesCount] = Image(\r\n            imagesCount,\r\n            _hash,\r\n            _description,\r\n            0,\r\n            payable(msg.sender)\r\n        );\r\n\r\n        emit ImageUploaded(\r\n            imagesCount,\r\n            _hash,\r\n            _description,\r\n            0,\r\n            payable(msg.sender)\r\n        );\r\n    }\r\n\r\n    function tipImageOwner(uint _id) public payable {\r\n        require(_id > 0 && _id <= imagesCount);\r\n\r\n        Image memory _image = images[_id];\r\n\r\n        require(msg.sender != _image.user);\r\n\r\n        payable(address(_image.user)).transfer(msg.value);\r\n\r\n        _image.grantAmount += msg.value;\r\n\r\n        images[_id] = _image;\r\n\r\n        emit ImageUploaded(\r\n            _image.id,\r\n            _image.hash,\r\n            _image.description,\r\n            _image.grantAmount,\r\n            _image.user\r\n        );\r\n    }\r\n}\r\n",
  "sourcePath": "D:\\Programming\\Blockchain\\instagram_clone\\client\\src\\contracts\\Decentragram.sol",
  "compiler": {
    "name": "solc",
    "version": "0.8.17+commit.8df45f5f.Emscripten.clang"
  },
  "schemaVersion": "3.4.11",
  "updatedAt": "2022-12-28T18:22:19.676Z",
  "networkType": "ethereum",
  "devdoc": {
    "kind": "dev",
    "methods": {},
    "version": 1
  },
  "userdoc": {
    "kind": "user",
    "methods": {},
    "version": 1
  }
}