{
  "contractName": "Decentragram",
  "abi": [
    {
      "inputs": [],
      "stateMutability": "nonpayable",
      "type": "constructor"
    },
    {
      "anonymous": false,
      "inputs": [
        {
          "indexed": false,
          "internalType": "uint256",
          "name": "id",
          "type": "uint256"
        },
        {
          "indexed": false,
          "internalType": "string",
          "name": "hash",
          "type": "string"
        },
        {
          "indexed": false,
          "internalType": "string",
          "name": "description",
          "type": "string"
        },
        {
          "indexed": false,
          "internalType": "uint256",
          "name": "likes",
          "type": "uint256"
        },
        {
          "indexed": false,
          "internalType": "address payable",
          "name": "user",
          "type": "address"
        }
      ],
      "name": "ImageUpload",
      "type": "event"
    },
    {
      "inputs": [
        {
          "internalType": "uint256",
          "name": "",
          "type": "uint256"
        }
      ],
      "name": "images",
      "outputs": [
        {
          "internalType": "uint256",
          "name": "id",
          "type": "uint256"
        },
        {
          "internalType": "string",
          "name": "hash",
          "type": "string"
        },
        {
          "internalType": "string",
          "name": "description",
          "type": "string"
        },
        {
          "internalType": "uint256",
          "name": "likes",
          "type": "uint256"
        },
        {
          "internalType": "address payable",
          "name": "user",
          "type": "address"
        }
      ],
      "stateMutability": "view",
      "type": "function",
      "constant": true
    },
    {
      "inputs": [],
      "name": "imagesCount",
      "outputs": [
        {
          "internalType": "uint256",
          "name": "",
          "type": "uint256"
        }
      ],
      "stateMutability": "view",
      "type": "function",
      "constant": true
    },
    {
      "inputs": [],
      "name": "name",
      "outputs": [
        {
          "internalType": "string",
          "name": "",
          "type": "string"
        }
      ],
      "stateMutability": "view",
      "type": "function",
      "constant": true
    },
    {
      "inputs": [
        {
          "internalType": "string",
          "name": "_hash",
          "type": "string"
        },
        {
          "internalType": "string",
          "name": "_description",
          "type": "string"
        }
      ],
      "name": "uploadImage",
      "outputs": [],
      "stateMutability": "nonpayable",
      "type": "function"
    }
  ],
  "bytecode": "0x60806040526040518060400160405280600c81526020017f446563656e7472616772616d0000000000000000000000000000000000000000815250600090816200004a9190620002de565b5060006002553480156200005d57600080fd5b50620003c5565b600081519050919050565b7f4e487b7100000000000000000000000000000000000000000000000000000000600052604160045260246000fd5b7f4e487b7100000000000000000000000000000000000000000000000000000000600052602260045260246000fd5b60006002820490506001821680620000e657607f821691505b602082108103620000fc57620000fb6200009e565b5b50919050565b60008190508160005260206000209050919050565b60006020601f8301049050919050565b600082821b905092915050565b600060088302620001667fffffffffffffffffffffffffffffffffffffffffffffffffffffffffffffffff8262000127565b62000172868362000127565b95508019841693508086168417925050509392505050565b6000819050919050565b6000819050919050565b6000620001bf620001b9620001b3846200018a565b62000194565b6200018a565b9050919050565b6000819050919050565b620001db836200019e565b620001f3620001ea82620001c6565b84845462000134565b825550505050565b600090565b6200020a620001fb565b62000217818484620001d0565b505050565b5b818110156200023f576200023360008262000200565b6001810190506200021d565b5050565b601f8211156200028e57620002588162000102565b620002638462000117565b8101602085101562000273578190505b6200028b620002828562000117565b8301826200021c565b50505b505050565b600082821c905092915050565b6000620002b36000198460080262000293565b1980831691505092915050565b6000620002ce8383620002a0565b9150826002028217905092915050565b620002e98262000064565b67ffffffffffffffff8111156200030557620003046200006f565b5b620003118254620000cd565b6200031e82828562000243565b600060209050601f83116001811462000356576000841562000341578287015190505b6200034d8582620002c0565b865550620003bd565b601f198416620003668662000102565b60005b82811015620003905784890151825560018201915060208501945060208101905062000369565b86831015620003b05784890151620003ac601f891682620002a0565b8355505b6001600288020188555050505b505050505050565b610c3180620003d56000396000f3fe608060405234801561001057600080fd5b506004361061004c5760003560e01c806306fdde031461005157806356e224af1461006f578063848564821461008d578063a91b8314146100c1575b600080fd5b6100596100dd565b60405161006691906104f8565b60405180910390f35b61007761016b565b6040516100849190610533565b60405180910390f35b6100a760048036038101906100a2919061058e565b610171565b6040516100b89594939291906105fc565b60405180910390f35b6100db60048036038101906100d69190610792565b6102d7565b005b600080546100ea90610839565b80601f016020809104026020016040519081016040528092919081815260200182805461011690610839565b80156101635780601f1061013857610100808354040283529160200191610163565b820191906000526020600020905b81548152906001019060200180831161014657829003601f168201915b505050505081565b60025481565b600160205280600052604060002060009150905080600001549080600101805461019a90610839565b80601f01602080910402602001604051908101604052809291908181526020018280546101c690610839565b80156102135780601f106101e857610100808354040283529160200191610213565b820191906000526020600020905b8154815290600101906020018083116101f657829003601f168201915b50505050509080600201805461022890610839565b80601f016020809104026020016040519081016040528092919081815260200182805461025490610839565b80156102a15780601f10610276576101008083540402835291602001916102a1565b820191906000526020600020905b81548152906001019060200180831161028457829003601f168201915b5050505050908060030154908060040160009054906101000a900473ffffffffffffffffffffffffffffffffffffffff16905085565b600082511180156102e9575060008151115b80156103225750600073ffffffffffffffffffffffffffffffffffffffff163373ffffffffffffffffffffffffffffffffffffffff1614155b61032b57600080fd5b6002600081548092919061033e90610899565b91905055506040518060a001604052806002548152602001838152602001828152602001600081526020013373ffffffffffffffffffffffffffffffffffffffff168152506001600060025481526020019081526020016000206000820151816000015560208201518160010190816103b79190610a8d565b5060408201518160020190816103cd9190610a8d565b506060820151816003015560808201518160040160006101000a81548173ffffffffffffffffffffffffffffffffffffffff021916908373ffffffffffffffffffffffffffffffffffffffff1602179055509050507f0536773d762e2b987ff7a9d69a5c53eec7517e681f8ce23a2b83470258f448ac600254838360003360405161045c959493929190610b9a565b60405180910390a15050565b600081519050919050565b600082825260208201905092915050565b60005b838110156104a2578082015181840152602081019050610487565b60008484015250505050565b6000601f19601f8301169050919050565b60006104ca82610468565b6104d48185610473565b93506104e4818560208601610484565b6104ed816104ae565b840191505092915050565b6000602082019050818103600083015261051281846104bf565b905092915050565b6000819050919050565b61052d8161051a565b82525050565b60006020820190506105486000830184610524565b92915050565b6000604051905090565b600080fd5b600080fd5b61056b8161051a565b811461057657600080fd5b50565b60008135905061058881610562565b92915050565b6000602082840312156105a4576105a3610558565b5b60006105b284828501610579565b91505092915050565b600073ffffffffffffffffffffffffffffffffffffffff82169050919050565b60006105e6826105bb565b9050919050565b6105f6816105db565b82525050565b600060a0820190506106116000830188610524565b818103602083015261062381876104bf565b9050818103604083015261063781866104bf565b90506106466060830185610524565b61065360808301846105ed565b9695505050505050565b600080fd5b600080fd5b7f4e487b7100000000000000000000000000000000000000000000000000000000600052604160045260246000fd5b61069f826104ae565b810181811067ffffffffffffffff821117156106be576106bd610667565b5b80604052505050565b60006106d161054e565b90506106dd8282610696565b919050565b600067ffffffffffffffff8211156106fd576106fc610667565b5b610706826104ae565b9050602081019050919050565b82818337600083830152505050565b6000610735610730846106e2565b6106c7565b90508281526020810184848401111561075157610750610662565b5b61075c848285610713565b509392505050565b600082601f8301126107795761077861065d565b5b8135610789848260208601610722565b91505092915050565b600080604083850312156107a9576107a8610558565b5b600083013567ffffffffffffffff8111156107c7576107c661055d565b5b6107d385828601610764565b925050602083013567ffffffffffffffff8111156107f4576107f361055d565b5b61080085828601610764565b9150509250929050565b7f4e487b7100000000000000000000000000000000000000000000000000000000600052602260045260246000fd5b6000600282049050600182168061085157607f821691505b6020821081036108645761086361080a565b5b50919050565b7f4e487b7100000000000000000000000000000000000000000000000000000000600052601160045260246000fd5b60006108a48261051a565b91507fffffffffffffffffffffffffffffffffffffffffffffffffffffffffffffffff82036108d6576108d561086a565b5b600182019050919050565b60008190508160005260206000209050919050565b60006020601f8301049050919050565b600082821b905092915050565b6000600883026109437fffffffffffffffffffffffffffffffffffffffffffffffffffffffffffffffff82610906565b61094d8683610906565b95508019841693508086168417925050509392505050565b6000819050919050565b600061098a6109856109808461051a565b610965565b61051a565b9050919050565b6000819050919050565b6109a48361096f565b6109b86109b082610991565b848454610913565b825550505050565b600090565b6109cd6109c0565b6109d881848461099b565b505050565b5b818110156109fc576109f16000826109c5565b6001810190506109de565b5050565b601f821115610a4157610a12816108e1565b610a1b846108f6565b81016020851015610a2a578190505b610a3e610a36856108f6565b8301826109dd565b50505b505050565b600082821c905092915050565b6000610a6460001984600802610a46565b1980831691505092915050565b6000610a7d8383610a53565b9150826002028217905092915050565b610a9682610468565b67ffffffffffffffff811115610aaf57610aae610667565b5b610ab98254610839565b610ac4828285610a00565b600060209050601f831160018114610af75760008415610ae5578287015190505b610aef8582610a71565b865550610b57565b601f198416610b05866108e1565b60005b82811015610b2d57848901518255600182019150602085019450602081019050610b08565b86831015610b4a5784890151610b46601f891682610a53565b8355505b6001600288020188555050505b505050505050565b6000819050919050565b6000610b84610b7f610b7a84610b5f565b610965565b61051a565b9050919050565b610b9481610b69565b82525050565b600060a082019050610baf6000830188610524565b8181036020830152610bc181876104bf565b90508181036040830152610bd581866104bf565b9050610be46060830185610b8b565b610bf160808301846105ed565b969550505050505056fea2646970667358221220d6e665bc9b6148d24647d9b0d02a00bd8ec28bb9f49d0a2b343424d2a54c123a64736f6c63430008110033",
  "immutableReferences": {},
  "source": "pragma solidity ^0.8.4;\r\n\r\ncontract Decentragram {\r\n    string public name = \"Decentragram\";\r\n\r\n    struct Image {\r\n        uint id;\r\n        string hash;\r\n        string description;\r\n        uint likes;\r\n        address payable user;\r\n    }\r\n\r\n    mapping(uint => Image) public images;\r\n    uint public imagesCount = 0;\r\n\r\n    event ImageUpload(\r\n        uint id,\r\n        string hash,\r\n        string description,\r\n        uint likes,\r\n        address payable user\r\n    );\r\n\r\n    constructor() {}\r\n\r\n    function uploadImage(\r\n        string memory _hash,\r\n        string memory _description\r\n    ) public {\r\n        require(\r\n            bytes(_hash).length > 0 &&\r\n                bytes(_description).length > 0 &&\r\n                msg.sender != address(0)\r\n        );\r\n\r\n        imagesCount++;\r\n        images[imagesCount] = Image(\r\n            imagesCount,\r\n            _hash,\r\n            _description,\r\n            0,\r\n            payable(msg.sender)\r\n        );\r\n\r\n        emit ImageUpload(\r\n            imagesCount,\r\n            _hash,\r\n            _description,\r\n            0,\r\n            payable(msg.sender)\r\n        );\r\n    }\r\n\r\n    // function storeImage() {}\r\n\r\n    // function likeImage() {}\r\n}\r\n",
  "sourcePath": "D:\\Programming\\Blockchain\\instagram_clone\\client\\src\\contracts\\Decentragram.sol",
  "compiler": {
    "name": "solc",
    "version": "0.8.17+commit.8df45f5f.Emscripten.clang"
  },
  "schemaVersion": "3.4.11",
  "updatedAt": "2022-12-27T17:01:41.989Z",
  "networkType": "ethereum",
  "devdoc": {
    "kind": "dev",
    "methods": {},
    "version": 1
  },
  "userdoc": {
    "kind": "user",
    "methods": {},
    "version": 1
  }
}